{
	"data": {
		"bytecode": {
			"linkReferences": {},
			"object": "608060405234801561001057600080fd5b50604051610bbb380380610bbb83398181016040528101906100329190610094565b336000806101000a81548173ffffffffffffffffffffffffffffffffffffffff021916908373ffffffffffffffffffffffffffffffffffffffff16021790555080600181905550506100e7565b60008151905061008e816100d0565b92915050565b6000602082840312156100aa576100a96100cb565b5b60006100b88482850161007f565b91505092915050565b6000819050919050565b600080fd5b6100d9816100c1565b81146100e457600080fd5b50565b610ac5806100f66000396000f3fe60806040526004361061003f5760003560e01c80630eed12ef146100445780632daa33311461006057806392bb05a91461007c578063a6f9dae1146100a5575b600080fd5b61005e6004803603810190610059919061061c565b6100ce565b005b61007a6004803603810190610075919061066f565b610230565b005b34801561008857600080fd5b506100a3600480360381019061009e9190610585565b610284565b005b3480156100b157600080fd5b506100cc60048036038101906100c79190610558565b6103d8565b005b60008054906101000a900473ffffffffffffffffffffffffffffffffffffffff1673ffffffffffffffffffffffffffffffffffffffff163373ffffffffffffffffffffffffffffffffffffffff161461015c576040517f08c379a0000000000000000000000000000000000000000000000000000000008152600401610153906107dc565b60405180910390fd5b82600360008484604051602001610174929190610762565b60405160208183030381529060405280519060200120815260200190815260200160002060006101000a81548173ffffffffffffffffffffffffffffffffffffffff021916908373ffffffffffffffffffffffffffffffffffffffff1602179055508273ffffffffffffffffffffffffffffffffffffffff166108fc60026001546101ff9190610879565b9081150290604051600060405180830381858888f1935050505015801561022a573d6000803e3d6000fd5b50505050565b60015434101561023f57600080fd5b80600260008585604051602001610257929190610762565b60405160208183030381529060405280519060200120815260200190815260200160002081905550505050565b60008383604051602001610299929190610762565b6040516020818303038152906040528051906020012090503373ffffffffffffffffffffffffffffffffffffffff166003600083815260200190815260200160002060009054906101000a900473ffffffffffffffffffffffffffffffffffffffff1673ffffffffffffffffffffffffffffffffffffffff161461031c57600080fd5b8160405160200161032d919061078e565b6040516020818303038152906040528051906020012060026000838152602001908152602001600020541461036157600080fd5b8373ffffffffffffffffffffffffffffffffffffffff166342842e0e8787866040518463ffffffff1660e01b815260040161039e939291906107a5565b600060405180830381600087803b1580156103b857600080fd5b505af11580156103cc573d6000803e3d6000fd5b50505050505050505050565b60008054906101000a900473ffffffffffffffffffffffffffffffffffffffff1673ffffffffffffffffffffffffffffffffffffffff163373ffffffffffffffffffffffffffffffffffffffff1614610466576040517f08c379a000000000000000000000000000000000000000000000000000000000815260040161045d906107dc565b60405180910390fd5b806000806101000a81548173ffffffffffffffffffffffffffffffffffffffff021916908373ffffffffffffffffffffffffffffffffffffffff16021790555050565b60006104bc6104b784610821565b6107fc565b9050828152602081018484840111156104d8576104d76109f4565b5b6104e38482856108f0565b509392505050565b6000813590506104fa81610a4a565b92915050565b60008135905061050f81610a61565b92915050565b600082601f83011261052a576105296109ef565b5b813561053a8482602086016104a9565b91505092915050565b60008135905061055281610a78565b92915050565b60006020828403121561056e5761056d6109fe565b5b600061057c848285016104eb565b91505092915050565b600080600080600060a086880312156105a1576105a06109fe565b5b60006105af888289016104eb565b95505060206105c0888289016104eb565b94505060406105d1888289016104eb565b93505060606105e288828901610543565b925050608086013567ffffffffffffffff811115610603576106026109f9565b5b61060f88828901610515565b9150509295509295909350565b600080600060608486031215610635576106346109fe565b5b6000610643868287016104eb565b9350506020610654868287016104eb565b925050604061066586828701610543565b9150509250925092565b600080600060608486031215610688576106876109fe565b5b6000610696868287016104eb565b93505060206106a786828701610543565b92505060406106b886828701610500565b9150509250925092565b6106cb816108aa565b82525050565b6106e26106dd826108aa565b610963565b82525050565b60006106f382610852565b6106fd818561086e565b935061070d8185602086016108ff565b80840191505092915050565b600061072660138361085d565b915061073182610a21565b602082019050919050565b610745816108e6565b82525050565b61075c610757826108e6565b610987565b82525050565b600061076e82856106d1565b60148201915061077e828461074b565b6020820191508190509392505050565b600061079a82846106e8565b915081905092915050565b60006060820190506107ba60008301866106c2565b6107c760208301856106c2565b6107d4604083018461073c565b949350505050565b600060208201905081810360008301526107f581610719565b9050919050565b6000610806610817565b90506108128282610932565b919050565b6000604051905090565b600067ffffffffffffffff82111561083c5761083b6109c0565b5b61084582610a03565b9050602081019050919050565b600081519050919050565b600082825260208201905092915050565b600081905092915050565b6000610884826108e6565b915061088f836108e6565b92508261089f5761089e610991565b5b828204905092915050565b60006108b5826108c6565b9050919050565b6000819050919050565b600073ffffffffffffffffffffffffffffffffffffffff82169050919050565b6000819050919050565b82818337600083830152505050565b60005b8381101561091d578082015181840152602081019050610902565b8381111561092c576000848401525b50505050565b61093b82610a03565b810181811067ffffffffffffffff8211171561095a576109596109c0565b5b80604052505050565b600061096e82610975565b9050919050565b600061098082610a14565b9050919050565b6000819050919050565b7f4e487b7100000000000000000000000000000000000000000000000000000000600052601260045260246000fd5b7f4e487b7100000000000000000000000000000000000000000000000000000000600052604160045260246000fd5b600080fd5b600080fd5b600080fd5b600080fd5b6000601f19601f8301169050919050565b60008160601b9050919050565b7f43616c6c6572206973206e6f74206f776e657200000000000000000000000000600082015250565b610a53816108aa565b8114610a5e57600080fd5b50565b610a6a816108bc565b8114610a7557600080fd5b50565b610a81816108e6565b8114610a8c57600080fd5b5056fea2646970667358221220da67b4afb6a43c7379e78a0df0feab36d241f931f77ca389c7a0ee73d77622ad64736f6c63430008070033",
			"opcodes": "PUSH1 0x80 PUSH1 0x40 MSTORE CALLVALUE DUP1 ISZERO PUSH2 0x10 JUMPI PUSH1 0x0 DUP1 REVERT JUMPDEST POP PUSH1 0x40 MLOAD PUSH2 0xBBB CODESIZE SUB DUP1 PUSH2 0xBBB DUP4 CODECOPY DUP2 DUP2 ADD PUSH1 0x40 MSTORE DUP2 ADD SWAP1 PUSH2 0x32 SWAP2 SWAP1 PUSH2 0x94 JUMP JUMPDEST CALLER PUSH1 0x0 DUP1 PUSH2 0x100 EXP DUP2 SLOAD DUP2 PUSH20 0xFFFFFFFFFFFFFFFFFFFFFFFFFFFFFFFFFFFFFFFF MUL NOT AND SWAP1 DUP4 PUSH20 0xFFFFFFFFFFFFFFFFFFFFFFFFFFFFFFFFFFFFFFFF AND MUL OR SWAP1 SSTORE POP DUP1 PUSH1 0x1 DUP2 SWAP1 SSTORE POP POP PUSH2 0xE7 JUMP JUMPDEST PUSH1 0x0 DUP2 MLOAD SWAP1 POP PUSH2 0x8E DUP2 PUSH2 0xD0 JUMP JUMPDEST SWAP3 SWAP2 POP POP JUMP JUMPDEST PUSH1 0x0 PUSH1 0x20 DUP3 DUP5 SUB SLT ISZERO PUSH2 0xAA JUMPI PUSH2 0xA9 PUSH2 0xCB JUMP JUMPDEST JUMPDEST PUSH1 0x0 PUSH2 0xB8 DUP5 DUP3 DUP6 ADD PUSH2 0x7F JUMP JUMPDEST SWAP2 POP POP SWAP3 SWAP2 POP POP JUMP JUMPDEST PUSH1 0x0 DUP2 SWAP1 POP SWAP2 SWAP1 POP JUMP JUMPDEST PUSH1 0x0 DUP1 REVERT JUMPDEST PUSH2 0xD9 DUP2 PUSH2 0xC1 JUMP JUMPDEST DUP2 EQ PUSH2 0xE4 JUMPI PUSH1 0x0 DUP1 REVERT JUMPDEST POP JUMP JUMPDEST PUSH2 0xAC5 DUP1 PUSH2 0xF6 PUSH1 0x0 CODECOPY PUSH1 0x0 RETURN INVALID PUSH1 0x80 PUSH1 0x40 MSTORE PUSH1 0x4 CALLDATASIZE LT PUSH2 0x3F JUMPI PUSH1 0x0 CALLDATALOAD PUSH1 0xE0 SHR DUP1 PUSH4 0xEED12EF EQ PUSH2 0x44 JUMPI DUP1 PUSH4 0x2DAA3331 EQ PUSH2 0x60 JUMPI DUP1 PUSH4 0x92BB05A9 EQ PUSH2 0x7C JUMPI DUP1 PUSH4 0xA6F9DAE1 EQ PUSH2 0xA5 JUMPI JUMPDEST PUSH1 0x0 DUP1 REVERT JUMPDEST PUSH2 0x5E PUSH1 0x4 DUP1 CALLDATASIZE SUB DUP2 ADD SWAP1 PUSH2 0x59 SWAP2 SWAP1 PUSH2 0x61C JUMP JUMPDEST PUSH2 0xCE JUMP JUMPDEST STOP JUMPDEST PUSH2 0x7A PUSH1 0x4 DUP1 CALLDATASIZE SUB DUP2 ADD SWAP1 PUSH2 0x75 SWAP2 SWAP1 PUSH2 0x66F JUMP JUMPDEST PUSH2 0x230 JUMP JUMPDEST STOP JUMPDEST CALLVALUE DUP1 ISZERO PUSH2 0x88 JUMPI PUSH1 0x0 DUP1 REVERT JUMPDEST POP PUSH2 0xA3 PUSH1 0x4 DUP1 CALLDATASIZE SUB DUP2 ADD SWAP1 PUSH2 0x9E SWAP2 SWAP1 PUSH2 0x585 JUMP JUMPDEST PUSH2 0x284 JUMP JUMPDEST STOP JUMPDEST CALLVALUE DUP1 ISZERO PUSH2 0xB1 JUMPI PUSH1 0x0 DUP1 REVERT JUMPDEST POP PUSH2 0xCC PUSH1 0x4 DUP1 CALLDATASIZE SUB DUP2 ADD SWAP1 PUSH2 0xC7 SWAP2 SWAP1 PUSH2 0x558 JUMP JUMPDEST PUSH2 0x3D8 JUMP JUMPDEST STOP JUMPDEST PUSH1 0x0 DUP1 SLOAD SWAP1 PUSH2 0x100 EXP SWAP1 DIV PUSH20 0xFFFFFFFFFFFFFFFFFFFFFFFFFFFFFFFFFFFFFFFF AND PUSH20 0xFFFFFFFFFFFFFFFFFFFFFFFFFFFFFFFFFFFFFFFF AND CALLER PUSH20 0xFFFFFFFFFFFFFFFFFFFFFFFFFFFFFFFFFFFFFFFF AND EQ PUSH2 0x15C JUMPI PUSH1 0x40 MLOAD PUSH32 0x8C379A000000000000000000000000000000000000000000000000000000000 DUP2 MSTORE PUSH1 0x4 ADD PUSH2 0x153 SWAP1 PUSH2 0x7DC JUMP JUMPDEST PUSH1 0x40 MLOAD DUP1 SWAP2 SUB SWAP1 REVERT JUMPDEST DUP3 PUSH1 0x3 PUSH1 0x0 DUP5 DUP5 PUSH1 0x40 MLOAD PUSH1 0x20 ADD PUSH2 0x174 SWAP3 SWAP2 SWAP1 PUSH2 0x762 JUMP JUMPDEST PUSH1 0x40 MLOAD PUSH1 0x20 DUP2 DUP4 SUB SUB DUP2 MSTORE SWAP1 PUSH1 0x40 MSTORE DUP1 MLOAD SWAP1 PUSH1 0x20 ADD KECCAK256 DUP2 MSTORE PUSH1 0x20 ADD SWAP1 DUP2 MSTORE PUSH1 0x20 ADD PUSH1 0x0 KECCAK256 PUSH1 0x0 PUSH2 0x100 EXP DUP2 SLOAD DUP2 PUSH20 0xFFFFFFFFFFFFFFFFFFFFFFFFFFFFFFFFFFFFFFFF MUL NOT AND SWAP1 DUP4 PUSH20 0xFFFFFFFFFFFFFFFFFFFFFFFFFFFFFFFFFFFFFFFF AND MUL OR SWAP1 SSTORE POP DUP3 PUSH20 0xFFFFFFFFFFFFFFFFFFFFFFFFFFFFFFFFFFFFFFFF AND PUSH2 0x8FC PUSH1 0x2 PUSH1 0x1 SLOAD PUSH2 0x1FF SWAP2 SWAP1 PUSH2 0x879 JUMP JUMPDEST SWAP1 DUP2 ISZERO MUL SWAP1 PUSH1 0x40 MLOAD PUSH1 0x0 PUSH1 0x40 MLOAD DUP1 DUP4 SUB DUP2 DUP6 DUP9 DUP9 CALL SWAP4 POP POP POP POP ISZERO DUP1 ISZERO PUSH2 0x22A JUMPI RETURNDATASIZE PUSH1 0x0 DUP1 RETURNDATACOPY RETURNDATASIZE PUSH1 0x0 REVERT JUMPDEST POP POP POP POP JUMP JUMPDEST PUSH1 0x1 SLOAD CALLVALUE LT ISZERO PUSH2 0x23F JUMPI PUSH1 0x0 DUP1 REVERT JUMPDEST DUP1 PUSH1 0x2 PUSH1 0x0 DUP6 DUP6 PUSH1 0x40 MLOAD PUSH1 0x20 ADD PUSH2 0x257 SWAP3 SWAP2 SWAP1 PUSH2 0x762 JUMP JUMPDEST PUSH1 0x40 MLOAD PUSH1 0x20 DUP2 DUP4 SUB SUB DUP2 MSTORE SWAP1 PUSH1 0x40 MSTORE DUP1 MLOAD SWAP1 PUSH1 0x20 ADD KECCAK256 DUP2 MSTORE PUSH1 0x20 ADD SWAP1 DUP2 MSTORE PUSH1 0x20 ADD PUSH1 0x0 KECCAK256 DUP2 SWAP1 SSTORE POP POP POP POP JUMP JUMPDEST PUSH1 0x0 DUP4 DUP4 PUSH1 0x40 MLOAD PUSH1 0x20 ADD PUSH2 0x299 SWAP3 SWAP2 SWAP1 PUSH2 0x762 JUMP JUMPDEST PUSH1 0x40 MLOAD PUSH1 0x20 DUP2 DUP4 SUB SUB DUP2 MSTORE SWAP1 PUSH1 0x40 MSTORE DUP1 MLOAD SWAP1 PUSH1 0x20 ADD KECCAK256 SWAP1 POP CALLER PUSH20 0xFFFFFFFFFFFFFFFFFFFFFFFFFFFFFFFFFFFFFFFF AND PUSH1 0x3 PUSH1 0x0 DUP4 DUP2 MSTORE PUSH1 0x20 ADD SWAP1 DUP2 MSTORE PUSH1 0x20 ADD PUSH1 0x0 KECCAK256 PUSH1 0x0 SWAP1 SLOAD SWAP1 PUSH2 0x100 EXP SWAP1 DIV PUSH20 0xFFFFFFFFFFFFFFFFFFFFFFFFFFFFFFFFFFFFFFFF AND PUSH20 0xFFFFFFFFFFFFFFFFFFFFFFFFFFFFFFFFFFFFFFFF AND EQ PUSH2 0x31C JUMPI PUSH1 0x0 DUP1 REVERT JUMPDEST DUP2 PUSH1 0x40 MLOAD PUSH1 0x20 ADD PUSH2 0x32D SWAP2 SWAP1 PUSH2 0x78E JUMP JUMPDEST PUSH1 0x40 MLOAD PUSH1 0x20 DUP2 DUP4 SUB SUB DUP2 MSTORE SWAP1 PUSH1 0x40 MSTORE DUP1 MLOAD SWAP1 PUSH1 0x20 ADD KECCAK256 PUSH1 0x2 PUSH1 0x0 DUP4 DUP2 MSTORE PUSH1 0x20 ADD SWAP1 DUP2 MSTORE PUSH1 0x20 ADD PUSH1 0x0 KECCAK256 SLOAD EQ PUSH2 0x361 JUMPI PUSH1 0x0 DUP1 REVERT JUMPDEST DUP4 PUSH20 0xFFFFFFFFFFFFFFFFFFFFFFFFFFFFFFFFFFFFFFFF AND PUSH4 0x42842E0E DUP8 DUP8 DUP7 PUSH1 0x40 MLOAD DUP5 PUSH4 0xFFFFFFFF AND PUSH1 0xE0 SHL DUP2 MSTORE PUSH1 0x4 ADD PUSH2 0x39E SWAP4 SWAP3 SWAP2 SWAP1 PUSH2 0x7A5 JUMP JUMPDEST PUSH1 0x0 PUSH1 0x40 MLOAD DUP1 DUP4 SUB DUP2 PUSH1 0x0 DUP8 DUP1 EXTCODESIZE ISZERO DUP1 ISZERO PUSH2 0x3B8 JUMPI PUSH1 0x0 DUP1 REVERT JUMPDEST POP GAS CALL ISZERO DUP1 ISZERO PUSH2 0x3CC JUMPI RETURNDATASIZE PUSH1 0x0 DUP1 RETURNDATACOPY RETURNDATASIZE PUSH1 0x0 REVERT JUMPDEST POP POP POP POP POP POP POP POP POP POP JUMP JUMPDEST PUSH1 0x0 DUP1 SLOAD SWAP1 PUSH2 0x100 EXP SWAP1 DIV PUSH20 0xFFFFFFFFFFFFFFFFFFFFFFFFFFFFFFFFFFFFFFFF AND PUSH20 0xFFFFFFFFFFFFFFFFFFFFFFFFFFFFFFFFFFFFFFFF AND CALLER PUSH20 0xFFFFFFFFFFFFFFFFFFFFFFFFFFFFFFFFFFFFFFFF AND EQ PUSH2 0x466 JUMPI PUSH1 0x40 MLOAD PUSH32 0x8C379A000000000000000000000000000000000000000000000000000000000 DUP2 MSTORE PUSH1 0x4 ADD PUSH2 0x45D SWAP1 PUSH2 0x7DC JUMP JUMPDEST PUSH1 0x40 MLOAD DUP1 SWAP2 SUB SWAP1 REVERT JUMPDEST DUP1 PUSH1 0x0 DUP1 PUSH2 0x100 EXP DUP2 SLOAD DUP2 PUSH20 0xFFFFFFFFFFFFFFFFFFFFFFFFFFFFFFFFFFFFFFFF MUL NOT AND SWAP1 DUP4 PUSH20 0xFFFFFFFFFFFFFFFFFFFFFFFFFFFFFFFFFFFFFFFF AND MUL OR SWAP1 SSTORE POP POP JUMP JUMPDEST PUSH1 0x0 PUSH2 0x4BC PUSH2 0x4B7 DUP5 PUSH2 0x821 JUMP JUMPDEST PUSH2 0x7FC JUMP JUMPDEST SWAP1 POP DUP3 DUP2 MSTORE PUSH1 0x20 DUP2 ADD DUP5 DUP5 DUP5 ADD GT ISZERO PUSH2 0x4D8 JUMPI PUSH2 0x4D7 PUSH2 0x9F4 JUMP JUMPDEST JUMPDEST PUSH2 0x4E3 DUP5 DUP3 DUP6 PUSH2 0x8F0 JUMP JUMPDEST POP SWAP4 SWAP3 POP POP POP JUMP JUMPDEST PUSH1 0x0 DUP2 CALLDATALOAD SWAP1 POP PUSH2 0x4FA DUP2 PUSH2 0xA4A JUMP JUMPDEST SWAP3 SWAP2 POP POP JUMP JUMPDEST PUSH1 0x0 DUP2 CALLDATALOAD SWAP1 POP PUSH2 0x50F DUP2 PUSH2 0xA61 JUMP JUMPDEST SWAP3 SWAP2 POP POP JUMP JUMPDEST PUSH1 0x0 DUP3 PUSH1 0x1F DUP4 ADD SLT PUSH2 0x52A JUMPI PUSH2 0x529 PUSH2 0x9EF JUMP JUMPDEST JUMPDEST DUP2 CALLDATALOAD PUSH2 0x53A DUP5 DUP3 PUSH1 0x20 DUP7 ADD PUSH2 0x4A9 JUMP JUMPDEST SWAP2 POP POP SWAP3 SWAP2 POP POP JUMP JUMPDEST PUSH1 0x0 DUP2 CALLDATALOAD SWAP1 POP PUSH2 0x552 DUP2 PUSH2 0xA78 JUMP JUMPDEST SWAP3 SWAP2 POP POP JUMP JUMPDEST PUSH1 0x0 PUSH1 0x20 DUP3 DUP5 SUB SLT ISZERO PUSH2 0x56E JUMPI PUSH2 0x56D PUSH2 0x9FE JUMP JUMPDEST JUMPDEST PUSH1 0x0 PUSH2 0x57C DUP5 DUP3 DUP6 ADD PUSH2 0x4EB JUMP JUMPDEST SWAP2 POP POP SWAP3 SWAP2 POP POP JUMP JUMPDEST PUSH1 0x0 DUP1 PUSH1 0x0 DUP1 PUSH1 0x0 PUSH1 0xA0 DUP7 DUP9 SUB SLT ISZERO PUSH2 0x5A1 JUMPI PUSH2 0x5A0 PUSH2 0x9FE JUMP JUMPDEST JUMPDEST PUSH1 0x0 PUSH2 0x5AF DUP9 DUP3 DUP10 ADD PUSH2 0x4EB JUMP JUMPDEST SWAP6 POP POP PUSH1 0x20 PUSH2 0x5C0 DUP9 DUP3 DUP10 ADD PUSH2 0x4EB JUMP JUMPDEST SWAP5 POP POP PUSH1 0x40 PUSH2 0x5D1 DUP9 DUP3 DUP10 ADD PUSH2 0x4EB JUMP JUMPDEST SWAP4 POP POP PUSH1 0x60 PUSH2 0x5E2 DUP9 DUP3 DUP10 ADD PUSH2 0x543 JUMP JUMPDEST SWAP3 POP POP PUSH1 0x80 DUP7 ADD CALLDATALOAD PUSH8 0xFFFFFFFFFFFFFFFF DUP2 GT ISZERO PUSH2 0x603 JUMPI PUSH2 0x602 PUSH2 0x9F9 JUMP JUMPDEST JUMPDEST PUSH2 0x60F DUP9 DUP3 DUP10 ADD PUSH2 0x515 JUMP JUMPDEST SWAP2 POP POP SWAP3 SWAP6 POP SWAP3 SWAP6 SWAP1 SWAP4 POP JUMP JUMPDEST PUSH1 0x0 DUP1 PUSH1 0x0 PUSH1 0x60 DUP5 DUP7 SUB SLT ISZERO PUSH2 0x635 JUMPI PUSH2 0x634 PUSH2 0x9FE JUMP JUMPDEST JUMPDEST PUSH1 0x0 PUSH2 0x643 DUP7 DUP3 DUP8 ADD PUSH2 0x4EB JUMP JUMPDEST SWAP4 POP POP PUSH1 0x20 PUSH2 0x654 DUP7 DUP3 DUP8 ADD PUSH2 0x4EB JUMP JUMPDEST SWAP3 POP POP PUSH1 0x40 PUSH2 0x665 DUP7 DUP3 DUP8 ADD PUSH2 0x543 JUMP JUMPDEST SWAP2 POP POP SWAP3 POP SWAP3 POP SWAP3 JUMP JUMPDEST PUSH1 0x0 DUP1 PUSH1 0x0 PUSH1 0x60 DUP5 DUP7 SUB SLT ISZERO PUSH2 0x688 JUMPI PUSH2 0x687 PUSH2 0x9FE JUMP JUMPDEST JUMPDEST PUSH1 0x0 PUSH2 0x696 DUP7 DUP3 DUP8 ADD PUSH2 0x4EB JUMP JUMPDEST SWAP4 POP POP PUSH1 0x20 PUSH2 0x6A7 DUP7 DUP3 DUP8 ADD PUSH2 0x543 JUMP JUMPDEST SWAP3 POP POP PUSH1 0x40 PUSH2 0x6B8 DUP7 DUP3 DUP8 ADD PUSH2 0x500 JUMP JUMPDEST SWAP2 POP POP SWAP3 POP SWAP3 POP SWAP3 JUMP JUMPDEST PUSH2 0x6CB DUP2 PUSH2 0x8AA JUMP JUMPDEST DUP3 MSTORE POP POP JUMP JUMPDEST PUSH2 0x6E2 PUSH2 0x6DD DUP3 PUSH2 0x8AA JUMP JUMPDEST PUSH2 0x963 JUMP JUMPDEST DUP3 MSTORE POP POP JUMP JUMPDEST PUSH1 0x0 PUSH2 0x6F3 DUP3 PUSH2 0x852 JUMP JUMPDEST PUSH2 0x6FD DUP2 DUP6 PUSH2 0x86E JUMP JUMPDEST SWAP4 POP PUSH2 0x70D DUP2 DUP6 PUSH1 0x20 DUP7 ADD PUSH2 0x8FF JUMP JUMPDEST DUP1 DUP5 ADD SWAP2 POP POP SWAP3 SWAP2 POP POP JUMP JUMPDEST PUSH1 0x0 PUSH2 0x726 PUSH1 0x13 DUP4 PUSH2 0x85D JUMP JUMPDEST SWAP2 POP PUSH2 0x731 DUP3 PUSH2 0xA21 JUMP JUMPDEST PUSH1 0x20 DUP3 ADD SWAP1 POP SWAP2 SWAP1 POP JUMP JUMPDEST PUSH2 0x745 DUP2 PUSH2 0x8E6 JUMP JUMPDEST DUP3 MSTORE POP POP JUMP JUMPDEST PUSH2 0x75C PUSH2 0x757 DUP3 PUSH2 0x8E6 JUMP JUMPDEST PUSH2 0x987 JUMP JUMPDEST DUP3 MSTORE POP POP JUMP JUMPDEST PUSH1 0x0 PUSH2 0x76E DUP3 DUP6 PUSH2 0x6D1 JUMP JUMPDEST PUSH1 0x14 DUP3 ADD SWAP2 POP PUSH2 0x77E DUP3 DUP5 PUSH2 0x74B JUMP JUMPDEST PUSH1 0x20 DUP3 ADD SWAP2 POP DUP2 SWAP1 POP SWAP4 SWAP3 POP POP POP JUMP JUMPDEST PUSH1 0x0 PUSH2 0x79A DUP3 DUP5 PUSH2 0x6E8 JUMP JUMPDEST SWAP2 POP DUP2 SWAP1 POP SWAP3 SWAP2 POP POP JUMP JUMPDEST PUSH1 0x0 PUSH1 0x60 DUP3 ADD SWAP1 POP PUSH2 0x7BA PUSH1 0x0 DUP4 ADD DUP7 PUSH2 0x6C2 JUMP JUMPDEST PUSH2 0x7C7 PUSH1 0x20 DUP4 ADD DUP6 PUSH2 0x6C2 JUMP JUMPDEST PUSH2 0x7D4 PUSH1 0x40 DUP4 ADD DUP5 PUSH2 0x73C JUMP JUMPDEST SWAP5 SWAP4 POP POP POP POP JUMP JUMPDEST PUSH1 0x0 PUSH1 0x20 DUP3 ADD SWAP1 POP DUP2 DUP2 SUB PUSH1 0x0 DUP4 ADD MSTORE PUSH2 0x7F5 DUP2 PUSH2 0x719 JUMP JUMPDEST SWAP1 POP SWAP2 SWAP1 POP JUMP JUMPDEST PUSH1 0x0 PUSH2 0x806 PUSH2 0x817 JUMP JUMPDEST SWAP1 POP PUSH2 0x812 DUP3 DUP3 PUSH2 0x932 JUMP JUMPDEST SWAP2 SWAP1 POP JUMP JUMPDEST PUSH1 0x0 PUSH1 0x40 MLOAD SWAP1 POP SWAP1 JUMP JUMPDEST PUSH1 0x0 PUSH8 0xFFFFFFFFFFFFFFFF DUP3 GT ISZERO PUSH2 0x83C JUMPI PUSH2 0x83B PUSH2 0x9C0 JUMP JUMPDEST JUMPDEST PUSH2 0x845 DUP3 PUSH2 0xA03 JUMP JUMPDEST SWAP1 POP PUSH1 0x20 DUP2 ADD SWAP1 POP SWAP2 SWAP1 POP JUMP JUMPDEST PUSH1 0x0 DUP2 MLOAD SWAP1 POP SWAP2 SWAP1 POP JUMP JUMPDEST PUSH1 0x0 DUP3 DUP3 MSTORE PUSH1 0x20 DUP3 ADD SWAP1 POP SWAP3 SWAP2 POP POP JUMP JUMPDEST PUSH1 0x0 DUP2 SWAP1 POP SWAP3 SWAP2 POP POP JUMP JUMPDEST PUSH1 0x0 PUSH2 0x884 DUP3 PUSH2 0x8E6 JUMP JUMPDEST SWAP2 POP PUSH2 0x88F DUP4 PUSH2 0x8E6 JUMP JUMPDEST SWAP3 POP DUP3 PUSH2 0x89F JUMPI PUSH2 0x89E PUSH2 0x991 JUMP JUMPDEST JUMPDEST DUP3 DUP3 DIV SWAP1 POP SWAP3 SWAP2 POP POP JUMP JUMPDEST PUSH1 0x0 PUSH2 0x8B5 DUP3 PUSH2 0x8C6 JUMP JUMPDEST SWAP1 POP SWAP2 SWAP1 POP JUMP JUMPDEST PUSH1 0x0 DUP2 SWAP1 POP SWAP2 SWAP1 POP JUMP JUMPDEST PUSH1 0x0 PUSH20 0xFFFFFFFFFFFFFFFFFFFFFFFFFFFFFFFFFFFFFFFF DUP3 AND SWAP1 POP SWAP2 SWAP1 POP JUMP JUMPDEST PUSH1 0x0 DUP2 SWAP1 POP SWAP2 SWAP1 POP JUMP JUMPDEST DUP3 DUP2 DUP4 CALLDATACOPY PUSH1 0x0 DUP4 DUP4 ADD MSTORE POP POP POP JUMP JUMPDEST PUSH1 0x0 JUMPDEST DUP4 DUP2 LT ISZERO PUSH2 0x91D JUMPI DUP1 DUP3 ADD MLOAD DUP2 DUP5 ADD MSTORE PUSH1 0x20 DUP2 ADD SWAP1 POP PUSH2 0x902 JUMP JUMPDEST DUP4 DUP2 GT ISZERO PUSH2 0x92C JUMPI PUSH1 0x0 DUP5 DUP5 ADD MSTORE JUMPDEST POP POP POP POP JUMP JUMPDEST PUSH2 0x93B DUP3 PUSH2 0xA03 JUMP JUMPDEST DUP2 ADD DUP2 DUP2 LT PUSH8 0xFFFFFFFFFFFFFFFF DUP3 GT OR ISZERO PUSH2 0x95A JUMPI PUSH2 0x959 PUSH2 0x9C0 JUMP JUMPDEST JUMPDEST DUP1 PUSH1 0x40 MSTORE POP POP POP JUMP JUMPDEST PUSH1 0x0 PUSH2 0x96E DUP3 PUSH2 0x975 JUMP JUMPDEST SWAP1 POP SWAP2 SWAP1 POP JUMP JUMPDEST PUSH1 0x0 PUSH2 0x980 DUP3 PUSH2 0xA14 JUMP JUMPDEST SWAP1 POP SWAP2 SWAP1 POP JUMP JUMPDEST PUSH1 0x0 DUP2 SWAP1 POP SWAP2 SWAP1 POP JUMP JUMPDEST PUSH32 0x4E487B7100000000000000000000000000000000000000000000000000000000 PUSH1 0x0 MSTORE PUSH1 0x12 PUSH1 0x4 MSTORE PUSH1 0x24 PUSH1 0x0 REVERT JUMPDEST PUSH32 0x4E487B7100000000000000000000000000000000000000000000000000000000 PUSH1 0x0 MSTORE PUSH1 0x41 PUSH1 0x4 MSTORE PUSH1 0x24 PUSH1 0x0 REVERT JUMPDEST PUSH1 0x0 DUP1 REVERT JUMPDEST PUSH1 0x0 DUP1 REVERT JUMPDEST PUSH1 0x0 DUP1 REVERT JUMPDEST PUSH1 0x0 DUP1 REVERT JUMPDEST PUSH1 0x0 PUSH1 0x1F NOT PUSH1 0x1F DUP4 ADD AND SWAP1 POP SWAP2 SWAP1 POP JUMP JUMPDEST PUSH1 0x0 DUP2 PUSH1 0x60 SHL SWAP1 POP SWAP2 SWAP1 POP JUMP JUMPDEST PUSH32 0x43616C6C6572206973206E6F74206F776E657200000000000000000000000000 PUSH1 0x0 DUP3 ADD MSTORE POP JUMP JUMPDEST PUSH2 0xA53 DUP2 PUSH2 0x8AA JUMP JUMPDEST DUP2 EQ PUSH2 0xA5E JUMPI PUSH1 0x0 DUP1 REVERT JUMPDEST POP JUMP JUMPDEST PUSH2 0xA6A DUP2 PUSH2 0x8BC JUMP JUMPDEST DUP2 EQ PUSH2 0xA75 JUMPI PUSH1 0x0 DUP1 REVERT JUMPDEST POP JUMP JUMPDEST PUSH2 0xA81 DUP2 PUSH2 0x8E6 JUMP JUMPDEST DUP2 EQ PUSH2 0xA8C JUMPI PUSH1 0x0 DUP1 REVERT JUMPDEST POP JUMP INVALID LOG2 PUSH5 0x6970667358 0x22 SLT KECCAK256 0xDA PUSH8 0xB4AFB6A43C7379E7 DUP11 0xD CREATE INVALID 0xAB CALLDATASIZE 0xD2 COINBASE 0xF9 BALANCE 0xF7 PUSH29 0xA389C7A0EE73D77622AD64736F6C634300080700330000000000000000 "
		},
		"gasEstimates": {
			"creation": {
				"codeDepositCost": "551400",
				"executionCost": "infinite",
				"totalCost": "infinite"
			},
			"external": {
				"bookTransfer(address,address,uint256)": "infinite",
				"changeOwner(address)": "26933",
				"performTransferNFT(address,address,address,uint256,string)": "infinite",
				"setConfirmation(address,uint256,bytes32)": "infinite"
			}
		},
		"methodIdentifiers": {
			"bookTransfer(address,address,uint256)": "0eed12ef",
			"changeOwner(address)": "a6f9dae1",
			"performTransferNFT(address,address,address,uint256,string)": "92bb05a9",
			"setConfirmation(address,uint256,bytes32)": "2daa3331"
		}
	},
	"abi": [
		{
			"inputs": [
				{
					"internalType": "uint256",
					"name": "_comission",
					"type": "uint256"
				}
			],
			"stateMutability": "nonpayable",
			"type": "constructor"
		},
		{
			"inputs": [
				{
					"internalType": "address",
					"name": "receiver",
					"type": "address"
				},
				{
					"internalType": "address",
					"name": "nftContract",
					"type": "address"
				},
				{
					"internalType": "uint256",
					"name": "tokenId",
					"type": "uint256"
				}
			],
			"name": "bookTransfer",
			"outputs": [],
			"stateMutability": "payable",
			"type": "function"
		},
		{
			"inputs": [
				{
					"internalType": "address",
					"name": "newOwner",
					"type": "address"
				}
			],
			"name": "changeOwner",
			"outputs": [],
			"stateMutability": "nonpayable",
			"type": "function"
		},
		{
			"inputs": [
				{
					"internalType": "address",
					"name": "sender",
					"type": "address"
				},
				{
					"internalType": "address",
					"name": "receiver",
					"type": "address"
				},
				{
					"internalType": "address",
					"name": "nftContract",
					"type": "address"
				},
				{
					"internalType": "uint256",
					"name": "tokenId",
					"type": "uint256"
				},
				{
					"internalType": "string",
					"name": "confirmation",
					"type": "string"
				}
			],
			"name": "performTransferNFT",
			"outputs": [],
			"stateMutability": "nonpayable",
			"type": "function"
		},
		{
			"inputs": [
				{
					"internalType": "address",
					"name": "nftContract",
					"type": "address"
				},
				{
					"internalType": "uint256",
					"name": "tokenId",
					"type": "uint256"
				},
				{
					"internalType": "bytes32",
					"name": "keccak256ConfirmationHash",
					"type": "bytes32"
				}
			],
			"name": "setConfirmation",
			"outputs": [],
			"stateMutability": "payable",
			"type": "function"
		}
	]
}